{
  "contractName": "BeverageContract",
  "abi": [
    {
      "inputs": [
        {
          "internalType": "address",
          "name": "_owner",
          "type": "address"
        },
        {
          "internalType": "address",
          "name": "_loyaltySystem",
          "type": "address"
        }
      ],
      "stateMutability": "nonpayable",
      "type": "constructor"
    },
    {
      "inputs": [
        {
          "internalType": "address",
          "name": "_loyaltySystem",
          "type": "address"
        }
      ],
      "name": "setLoyaltySystem",
      "outputs": [],
      "stateMutability": "nonpayable",
      "type": "function"
    },
    {
      "inputs": [
        {
          "internalType": "address",
          "name": "customer",
          "type": "address"
        }
      ],
      "name": "purchase",
      "outputs": [],
      "stateMutability": "payable",
      "type": "function"
    },
    {
      "inputs": [
        {
          "internalType": "address",
          "name": "customer",
          "type": "address"
        },
        {
          "internalType": "uint256",
          "name": "points",
          "type": "uint256"
        }
      ],
      "name": "redeem",
      "outputs": [],
      "stateMutability": "nonpayable",
      "type": "function"
    },
    {
      "inputs": [],
      "name": "getOwner",
      "outputs": [
        {
          "internalType": "address",
          "name": "",
          "type": "address"
        }
      ],
      "stateMutability": "view",
      "type": "function"
    }
  ],
  "bytecode": "0x608060405234801561000f575f80fd5b506040516108f73803806108f783398181016040528101906100319190610115565b815f806101000a81548173ffffffffffffffffffffffffffffffffffffffff021916908373ffffffffffffffffffffffffffffffffffffffff1602179055508060015f6101000a81548173ffffffffffffffffffffffffffffffffffffffff021916908373ffffffffffffffffffffffffffffffffffffffff1602179055505050610153565b5f80fd5b5f73ffffffffffffffffffffffffffffffffffffffff82169050919050565b5f6100e4826100bb565b9050919050565b6100f4816100da565b81146100fe575f80fd5b50565b5f8151905061010f816100eb565b92915050565b5f806040838503121561012b5761012a6100b7565b5b5f61013885828601610101565b925050602061014985828601610101565b9150509250929050565b610797806101605f395ff3fe60806040526004361061003e575f3560e01c80631e9a69501461004257806325b31a971461006a578063893d20e814610086578063d495331f146100b0575b5f80fd5b34801561004d575f80fd5b506100686004803603810190610063919061041a565b6100d8565b005b610084600480360381019061007f9190610458565b6101aa565b005b348015610091575f80fd5b5061009a610292565b6040516100a79190610492565b60405180910390f35b3480156100bb575f80fd5b506100d660048036038101906100d19190610458565b6102b9565b005b600a81101561011c576040517f08c379a00000000000000000000000000000000000000000000000000000000081526004016101139061052b565b60405180910390fd5b60015f9054906101000a900473ffffffffffffffffffffffffffffffffffffffff1673ffffffffffffffffffffffffffffffffffffffff1663b85da8d283600a6040518363ffffffff1660e01b815260040161017992919061058b565b5f604051808303815f87803b158015610190575f80fd5b505af11580156101a2573d5f803e3d5ffd5b505050505050565b662386f26fc100003410156101f4576040517f08c379a00000000000000000000000000000000000000000000000000000000081526004016101eb90610622565b60405180910390fd5b60015f9054906101000a900473ffffffffffffffffffffffffffffffffffffffff1673ffffffffffffffffffffffffffffffffffffffff1663da20569e82662386f26fc1000034610245919061066d565b6040518363ffffffff1660e01b81526004016102629291906106ac565b5f604051808303815f87803b158015610279575f80fd5b505af115801561028b573d5f803e3d5ffd5b5050505050565b5f805f9054906101000a900473ffffffffffffffffffffffffffffffffffffffff16905090565b5f8054906101000a900473ffffffffffffffffffffffffffffffffffffffff1673ffffffffffffffffffffffffffffffffffffffff163373ffffffffffffffffffffffffffffffffffffffff1614610346576040517f08c379a000000000000000000000000000000000000000000000000000000000815260040161033d90610743565b60405180910390fd5b8060015f6101000a81548173ffffffffffffffffffffffffffffffffffffffff021916908373ffffffffffffffffffffffffffffffffffffffff16021790555050565b5f80fd5b5f73ffffffffffffffffffffffffffffffffffffffff82169050919050565b5f6103b68261038d565b9050919050565b6103c6816103ac565b81146103d0575f80fd5b50565b5f813590506103e1816103bd565b92915050565b5f819050919050565b6103f9816103e7565b8114610403575f80fd5b50565b5f81359050610414816103f0565b92915050565b5f80604083850312156104305761042f610389565b5b5f61043d858286016103d3565b925050602061044e85828601610406565b9150509250929050565b5f6020828403121561046d5761046c610389565b5b5f61047a848285016103d3565b91505092915050565b61048c816103ac565b82525050565b5f6020820190506104a55f830184610483565b92915050565b5f82825260208201905092915050565b7f4174206c6561737420313020706f696e747320617265207265717569726564205f8201527f746f2072656465656d2061206265766572616765000000000000000000000000602082015250565b5f6105156034836104ab565b9150610520826104bb565b604082019050919050565b5f6020820190508181035f83015261054281610509565b9050919050565b5f819050919050565b5f819050919050565b5f61057561057061056b84610549565b610552565b6103e7565b9050919050565b6105858161055b565b82525050565b5f60408201905061059e5f830185610483565b6105ab602083018461057c565b9392505050565b7f496e73756666696369656e74204554482073656e7420666f72207075726368615f8201527f7365000000000000000000000000000000000000000000000000000000000000602082015250565b5f61060c6022836104ab565b9150610617826105b2565b604082019050919050565b5f6020820190508181035f83015261063981610600565b9050919050565b7f4e487b71000000000000000000000000000000000000000000000000000000005f52601260045260245ffd5b5f610677826103e7565b9150610682836103e7565b92508261069257610691610640565b5b828204905092915050565b6106a6816103e7565b82525050565b5f6040820190506106bf5f830185610483565b6106cc602083018461069d565b9392505050565b7f4f6e6c7920746865206f776e65722063616e20706572666f726d2074686973205f8201527f616374696f6e0000000000000000000000000000000000000000000000000000602082015250565b5f61072d6026836104ab565b9150610738826106d3565b604082019050919050565b5f6020820190508181035f83015261075a81610721565b905091905056fea2646970667358221220cf8acfcbc9812b09be5ca4056d8615798f21e64b896239840ec32fcee1ca7fae64736f6c63430008150033",
  "immutableReferences": {},
  "source": "// SPDX-License-Identifier: MIT\r\npragma solidity ^0.8.0;\r\n\r\nimport \"./IBeverage.sol\";\r\nimport \"./RewardSystem.sol\";\r\n\r\ncontract BeverageContract is IBeverage {\r\n    address private owner;\r\n    RewardSystem private loyaltySystem;\r\n\r\n    modifier onlyOwner() {\r\n        require(msg.sender == owner, \"Only the owner can perform this action\");\r\n        _;\r\n    }\r\n\r\n    constructor(address _owner, address _loyaltySystem) {\r\n        owner = _owner;\r\n        loyaltySystem = RewardSystem(_loyaltySystem);\r\n    }\r\n\r\n    function setLoyaltySystem(address _loyaltySystem) public onlyOwner {\r\n        loyaltySystem = RewardSystem(_loyaltySystem);\r\n    }\r\n\r\n    function purchase(address customer) external payable override {\r\n        require(msg.value >= 0.01 ether, \"Insufficient ETH sent for purchase\");\r\n        loyaltySystem.issuePoints(customer, msg.value / 0.01 ether); // 1 point per 0.01 ETH spent\r\n    }\r\n\r\n    function redeem(address customer, uint points) external override {\r\n        require(points >= 10, \"At least 10 points are required to redeem a beverage\");\r\n        loyaltySystem.redeemPoints(customer, 10); // Redeem points for a beverage\r\n    }\r\n\r\n    function getOwner() public view returns (address) {\r\n        return owner;\r\n    }\r\n}\r\n",
  "sourcePath": "C:\\Users\\Cristian\\Desktop\\Blockchain\\contracts\\BevrageContract.sol",
  "compiler": {
    "name": "solc",
    "version": "0.8.21+commit.d9974bed.Emscripten.clang"
  },
  "schemaVersion": "3.4.16",
  "updatedAt": "2024-05-14T09:38:36.376Z",
  "devdoc": {
    "kind": "dev",
    "methods": {},
    "version": 1
  },
  "userdoc": {
    "kind": "user",
    "methods": {},
    "version": 1
  }
}