{
  "contractName": "BeverageContract",
  "abi": [
    {
      "inputs": [
        {
          "internalType": "address",
          "name": "_loyaltySystem",
          "type": "address"
        }
      ],
      "stateMutability": "nonpayable",
      "type": "constructor"
    },
    {
      "inputs": [
        {
          "internalType": "address",
          "name": "customer",
          "type": "address"
        }
      ],
      "name": "purchase",
      "outputs": [],
      "stateMutability": "payable",
      "type": "function",
      "payable": true
    },
    {
      "inputs": [
        {
          "internalType": "address",
          "name": "customer",
          "type": "address"
        },
        {
          "internalType": "uint256",
          "name": "points",
          "type": "uint256"
        }
      ],
      "name": "redeem",
      "outputs": [],
      "stateMutability": "nonpayable",
      "type": "function"
    }
  ],
  "bytecode": "0x608060405234801561000f575f80fd5b506040516107d43803806107d483398181016040528101906100319190610114565b335f806101000a81548173ffffffffffffffffffffffffffffffffffffffff021916908373ffffffffffffffffffffffffffffffffffffffff1602179055508060015f6101000a81548173ffffffffffffffffffffffffffffffffffffffff021916908373ffffffffffffffffffffffffffffffffffffffff1602179055505061013f565b5f80fd5b5f73ffffffffffffffffffffffffffffffffffffffff82169050919050565b5f6100e3826100ba565b9050919050565b6100f3816100d9565b81146100fd575f80fd5b50565b5f8151905061010e816100ea565b92915050565b5f60208284031215610129576101286100b6565b5b5f61013684828501610100565b91505092915050565b6106888061014c5f395ff3fe608060405260043610610028575f3560e01c80631e9a69501461002c57806325b31a9714610054575b5f80fd5b348015610037575f80fd5b50610052600480360381019061004d919061034a565b610070565b005b61006e60048036038101906100699190610388565b6101d1565b005b60015f9054906101000a900473ffffffffffffffffffffffffffffffffffffffff1673ffffffffffffffffffffffffffffffffffffffff163373ffffffffffffffffffffffffffffffffffffffff16146100ff576040517f08c379a00000000000000000000000000000000000000000000000000000000081526004016100f69061040d565b60405180910390fd5b600a811015610143576040517f08c379a000000000000000000000000000000000000000000000000000000000815260040161013a9061049b565b60405180910390fd5b60015f9054906101000a900473ffffffffffffffffffffffffffffffffffffffff1673ffffffffffffffffffffffffffffffffffffffff1663b85da8d283600a6040518363ffffffff1660e01b81526004016101a092919061050a565b5f604051808303815f87803b1580156101b7575f80fd5b505af11580156101c9573d5f803e3d5ffd5b505050505050565b662386f26fc1000034101561021b576040517f08c379a0000000000000000000000000000000000000000000000000000000008152600401610212906105a1565b60405180910390fd5b60015f9054906101000a900473ffffffffffffffffffffffffffffffffffffffff1673ffffffffffffffffffffffffffffffffffffffff1663da20569e82662386f26fc100003461026c91906105ec565b6040518363ffffffff1660e01b815260040161028992919061062b565b5f604051808303815f87803b1580156102a0575f80fd5b505af11580156102b2573d5f803e3d5ffd5b5050505050565b5f80fd5b5f73ffffffffffffffffffffffffffffffffffffffff82169050919050565b5f6102e6826102bd565b9050919050565b6102f6816102dc565b8114610300575f80fd5b50565b5f81359050610311816102ed565b92915050565b5f819050919050565b61032981610317565b8114610333575f80fd5b50565b5f8135905061034481610320565b92915050565b5f80604083850312156103605761035f6102b9565b5b5f61036d85828601610303565b925050602061037e85828601610336565b9150509250929050565b5f6020828403121561039d5761039c6102b9565b5b5f6103aa84828501610303565b91505092915050565b5f82825260208201905092915050565b7f556e617574686f72697a656420616363657373000000000000000000000000005f82015250565b5f6103f76013836103b3565b9150610402826103c3565b602082019050919050565b5f6020820190508181035f830152610424816103eb565b9050919050565b7f4174206c6561737420313020706f696e747320617265207265717569726564205f8201527f746f2072656465656d2061206265766572616765000000000000000000000000602082015250565b5f6104856034836103b3565b91506104908261042b565b604082019050919050565b5f6020820190508181035f8301526104b281610479565b9050919050565b6104c2816102dc565b82525050565b5f819050919050565b5f819050919050565b5f6104f46104ef6104ea846104c8565b6104d1565b610317565b9050919050565b610504816104da565b82525050565b5f60408201905061051d5f8301856104b9565b61052a60208301846104fb565b9392505050565b7f496e73756666696369656e74204554482073656e7420666f72207075726368615f8201527f7365000000000000000000000000000000000000000000000000000000000000602082015250565b5f61058b6022836103b3565b915061059682610531565b604082019050919050565b5f6020820190508181035f8301526105b88161057f565b9050919050565b7f4e487b71000000000000000000000000000000000000000000000000000000005f52601260045260245ffd5b5f6105f682610317565b915061060183610317565b925082610611576106106105bf565b5b828204905092915050565b61062581610317565b82525050565b5f60408201905061063e5f8301856104b9565b61064b602083018461061c565b939250505056fea26469706673582212202143451d5086b3cf864a095ffa5db449fd1af565fd0405851332e304919a70bf64736f6c63430008150033",
  "immutableReferences": {},
  "source": "// SPDX-License-Identifier: MIT\r\npragma solidity ^0.8.0;\r\n\r\nimport \"./IBeverage.sol\";\r\nimport \"./RewardSystem.sol\";\r\n\r\ncontract BeverageContract is IBeverage {\r\n    address private owner;\r\n    RewardSystem private loyaltySystem;\r\n\r\n    modifier onlyOwner() {\r\n        require(msg.sender == owner, \"Only the owner can perform this action\");\r\n        _;\r\n    }\r\n\r\n    constructor(address _loyaltySystem) {\r\n        owner = msg.sender;\r\n        loyaltySystem = RewardSystem(_loyaltySystem);\r\n    }\r\n\r\n    function purchase(address customer) external payable override {\r\n        require(msg.value >= 0.01 ether, \"Insufficient ETH sent for purchase\");\r\n        loyaltySystem.issuePoints(customer, msg.value / 0.01 ether); // 1 point per 0.01 ETH spent\r\n    }\r\n\r\n    function redeem(address customer, uint points) external override {\r\n        require(msg.sender == address(loyaltySystem), \"Unauthorized access\");\r\n        require(points >= 10, \"At least 10 points are required to redeem a beverage\");\r\n        loyaltySystem.redeemPoints(customer, 10); // Redeem points for a beverage\r\n    }\r\n}\r\n",
  "sourcePath": "C:\\Users\\Cristian\\Desktop\\Blockchain\\contracts\\BevrageContract.sol",
  "compiler": {
    "name": "solc",
    "version": "0.8.21+commit.d9974bed.Emscripten.clang"
  },
  "schemaVersion": "3.4.16",
  "updatedAt": "2024-05-12T00:17:31.888Z",
  "networkType": "ethereum",
  "devdoc": {
    "kind": "dev",
    "methods": {},
    "version": 1
  },
  "userdoc": {
    "kind": "user",
    "methods": {},
    "version": 1
  }
}