{
  "contractName": "LoyaltyPoints",
  "abi": [
    {
      "inputs": [],
      "stateMutability": "nonpayable",
      "type": "constructor"
    },
    {
      "anonymous": false,
      "inputs": [
        {
          "indexed": true,
          "internalType": "address",
          "name": "customer",
          "type": "address"
        },
        {
          "indexed": false,
          "internalType": "uint256",
          "name": "points",
          "type": "uint256"
        }
      ],
      "name": "PointsIssued",
      "type": "event"
    },
    {
      "anonymous": false,
      "inputs": [
        {
          "indexed": true,
          "internalType": "address",
          "name": "customer",
          "type": "address"
        },
        {
          "indexed": false,
          "internalType": "uint256",
          "name": "points",
          "type": "uint256"
        }
      ],
      "name": "PointsRedeemed",
      "type": "event"
    },
    {
      "inputs": [
        {
          "internalType": "address",
          "name": "",
          "type": "address"
        }
      ],
      "name": "pointsBalance",
      "outputs": [
        {
          "internalType": "uint256",
          "name": "",
          "type": "uint256"
        }
      ],
      "stateMutability": "view",
      "type": "function",
      "constant": true
    },
    {
      "inputs": [
        {
          "internalType": "address",
          "name": "_address",
          "type": "address"
        }
      ],
      "name": "setBeverageContract",
      "outputs": [],
      "stateMutability": "nonpayable",
      "type": "function"
    },
    {
      "inputs": [
        {
          "internalType": "address",
          "name": "customer",
          "type": "address"
        },
        {
          "internalType": "uint256",
          "name": "points",
          "type": "uint256"
        }
      ],
      "name": "issuePoints",
      "outputs": [],
      "stateMutability": "nonpayable",
      "type": "function"
    },
    {
      "inputs": [
        {
          "internalType": "address",
          "name": "customer",
          "type": "address"
        },
        {
          "internalType": "uint256",
          "name": "points",
          "type": "uint256"
        }
      ],
      "name": "redeemPoints",
      "outputs": [],
      "stateMutability": "nonpayable",
      "type": "function"
    },
    {
      "inputs": [
        {
          "internalType": "address",
          "name": "customer",
          "type": "address"
        }
      ],
      "name": "getPointsBalance",
      "outputs": [
        {
          "internalType": "uint256",
          "name": "",
          "type": "uint256"
        }
      ],
      "stateMutability": "view",
      "type": "function",
      "constant": true
    }
  ],
  "bytecode": "0x608060405234801561000f575f80fd5b503360015f6101000a81548173ffffffffffffffffffffffffffffffffffffffff021916908373ffffffffffffffffffffffffffffffffffffffff1602179055506108a88061005d5f395ff3fe608060405234801561000f575f80fd5b5060043610610055575f3560e01c806307e5a0c41461005957806325ca4cff14610075578063b85da8d2146100a5578063da20569e146100c1578063e707f36f146100dd575b5f80fd5b610073600480360381019061006e91906105ad565b61010d565b005b61008f600480360381019061008a91906105ad565b6101d9565b60405161009c91906105f0565b60405180910390f35b6100bf60048036038101906100ba9190610633565b6101ed565b005b6100db60048036038101906100d69190610633565b61039f565b005b6100f760048036038101906100f291906105ad565b6104d2565b60405161010491906105f0565b60405180910390f35b6101573360015f9054906101000a900473ffffffffffffffffffffffffffffffffffffffff1673ffffffffffffffffffffffffffffffffffffffff1661051790919063ffffffff16565b610196576040517f08c379a000000000000000000000000000000000000000000000000000000000815260040161018d906106f1565b60405180910390fd5b8060025f6101000a81548173ffffffffffffffffffffffffffffffffffffffff021916908373ffffffffffffffffffffffffffffffffffffffff16021790555050565b5f602052805f5260405f205f915090505481565b60025f9054906101000a900473ffffffffffffffffffffffffffffffffffffffff1673ffffffffffffffffffffffffffffffffffffffff163373ffffffffffffffffffffffffffffffffffffffff161461027c576040517f08c379a000000000000000000000000000000000000000000000000000000000815260040161027390610759565b60405180910390fd5b805f808473ffffffffffffffffffffffffffffffffffffffff1673ffffffffffffffffffffffffffffffffffffffff1681526020019081526020015f205410156102fb576040517f08c379a00000000000000000000000000000000000000000000000000000000081526004016102f2906107c1565b60405180910390fd5b805f808473ffffffffffffffffffffffffffffffffffffffff1673ffffffffffffffffffffffffffffffffffffffff1681526020019081526020015f205f828254610346919061080c565b925050819055508173ffffffffffffffffffffffffffffffffffffffff167fc37df5d14f305277c1289e9a188a097cda6684189c95f785feb056cb77a8c9108260405161039391906105f0565b60405180910390a25050565b60025f9054906101000a900473ffffffffffffffffffffffffffffffffffffffff1673ffffffffffffffffffffffffffffffffffffffff163373ffffffffffffffffffffffffffffffffffffffff161461042e576040517f08c379a000000000000000000000000000000000000000000000000000000000815260040161042590610759565b60405180910390fd5b805f808473ffffffffffffffffffffffffffffffffffffffff1673ffffffffffffffffffffffffffffffffffffffff1681526020019081526020015f205f828254610479919061083f565b925050819055508173ffffffffffffffffffffffffffffffffffffffff167f5522eea310695242e9a97820729914e053a3ea3ab980666463a3e6b7f4d080f1826040516104c691906105f0565b60405180910390a25050565b5f805f8373ffffffffffffffffffffffffffffffffffffffff1673ffffffffffffffffffffffffffffffffffffffff1681526020019081526020015f20549050919050565b5f8173ffffffffffffffffffffffffffffffffffffffff168373ffffffffffffffffffffffffffffffffffffffff1614905092915050565b5f80fd5b5f73ffffffffffffffffffffffffffffffffffffffff82169050919050565b5f61057c82610553565b9050919050565b61058c81610572565b8114610596575f80fd5b50565b5f813590506105a781610583565b92915050565b5f602082840312156105c2576105c161054f565b5b5f6105cf84828501610599565b91505092915050565b5f819050919050565b6105ea816105d8565b82525050565b5f6020820190506106035f8301846105e1565b92915050565b610612816105d8565b811461061c575f80fd5b50565b5f8135905061062d81610609565b92915050565b5f80604083850312156106495761064861054f565b5b5f61065685828601610599565b92505060206106678582860161061f565b9150509250929050565b5f82825260208201905092915050565b7f4f6e6c7920746865206f776e65722063616e20706572666f726d2074686973205f8201527f616374696f6e0000000000000000000000000000000000000000000000000000602082015250565b5f6106db602683610671565b91506106e682610681565b604082019050919050565b5f6020820190508181035f830152610708816106cf565b9050919050565b7f556e617574686f72697a656420616363657373000000000000000000000000005f82015250565b5f610743601383610671565b915061074e8261070f565b602082019050919050565b5f6020820190508181035f83015261077081610737565b9050919050565b7f496e73756666696369656e7420706f696e7473000000000000000000000000005f82015250565b5f6107ab601383610671565b91506107b682610777565b602082019050919050565b5f6020820190508181035f8301526107d88161079f565b9050919050565b7f4e487b71000000000000000000000000000000000000000000000000000000005f52601160045260245ffd5b5f610816826105d8565b9150610821836105d8565b9250828203905081811115610839576108386107df565b5b92915050565b5f610849826105d8565b9150610854836105d8565b925082820190508082111561086c5761086b6107df565b5b9291505056fea264697066735822122071b2b215683c3218f805a7592e2e4a090972ce9ac86d7a29ec4599ff5de87fc064736f6c63430008150033",
  "immutableReferences": {},
  "source": "// SPDX-License-Identifier: MIT\r\npragma solidity ^0.8.0;\r\n\r\nimport \"./RewardSystem.sol\";\r\nimport \"./AddressLib.sol\";\r\n\r\ncontract LoyaltyPoints is RewardSystem {\r\n    using AddressLib for address;\r\n\r\n    mapping(address => uint256) public pointsBalance;\r\n    address private owner;\r\n    address private beverageContractAddress;\r\n\r\n    event PointsIssued(address indexed customer, uint points);\r\n    event PointsRedeemed(address indexed customer, uint points);\r\n\r\n    modifier onlyOwner() {\r\n        require(owner.isOwner(msg.sender), \"Only the owner can perform this action\");\r\n        _;\r\n    }\r\n\r\n    modifier onlyBeverageContract() {\r\n        require(msg.sender == beverageContractAddress, \"Unauthorized access\");\r\n        _;\r\n    }\r\n\r\n    constructor() {\r\n        owner = msg.sender;\r\n    }\r\n\r\n    function setBeverageContract(address _address) public onlyOwner {\r\n        beverageContractAddress = _address;\r\n    }\r\n\r\n    function issuePoints(address customer, uint256 points) override external onlyBeverageContract {\r\n        pointsBalance[customer] += points;\r\n        emit PointsIssued(customer, points);\r\n    }\r\n\r\n    function redeemPoints(address customer, uint256 points) override external onlyBeverageContract {\r\n        require(pointsBalance[customer] >= points, \"Insufficient points\");\r\n        pointsBalance[customer] -= points;\r\n        emit PointsRedeemed(customer, points);\r\n    }\r\n\r\n    function getPointsBalance(address customer) public view returns (uint256) {\r\n        return pointsBalance[customer];\r\n    }\r\n}\r\n",
  "sourcePath": "C:\\Users\\Cristian\\Desktop\\Blockchain\\contracts\\LoyaltyPoints.sol",
  "compiler": {
    "name": "solc",
    "version": "0.8.21+commit.d9974bed.Emscripten.clang"
  },
  "schemaVersion": "3.4.16",
  "updatedAt": "2024-05-12T00:17:31.884Z",
  "networkType": "ethereum",
  "devdoc": {
    "kind": "dev",
    "methods": {},
    "version": 1
  },
  "userdoc": {
    "kind": "user",
    "methods": {},
    "version": 1
  }
}