{
  "contractName": "LoyaltyPoints",
  "abi": [
    {
      "inputs": [
        {
          "internalType": "address",
          "name": "_owner",
          "type": "address"
        },
        {
          "internalType": "address",
          "name": "_beverageContractAddress",
          "type": "address"
        }
      ],
      "stateMutability": "nonpayable",
      "type": "constructor"
    },
    {
      "anonymous": false,
      "inputs": [
        {
          "indexed": true,
          "internalType": "address",
          "name": "customer",
          "type": "address"
        },
        {
          "indexed": false,
          "internalType": "uint256",
          "name": "points",
          "type": "uint256"
        }
      ],
      "name": "PointsIssued",
      "type": "event"
    },
    {
      "anonymous": false,
      "inputs": [
        {
          "indexed": true,
          "internalType": "address",
          "name": "customer",
          "type": "address"
        },
        {
          "indexed": false,
          "internalType": "uint256",
          "name": "points",
          "type": "uint256"
        }
      ],
      "name": "PointsRedeemed",
      "type": "event"
    },
    {
      "inputs": [
        {
          "internalType": "address",
          "name": "",
          "type": "address"
        }
      ],
      "name": "pointsBalance",
      "outputs": [
        {
          "internalType": "uint256",
          "name": "",
          "type": "uint256"
        }
      ],
      "stateMutability": "view",
      "type": "function"
    },
    {
      "inputs": [
        {
          "internalType": "address",
          "name": "_address",
          "type": "address"
        }
      ],
      "name": "setBeverageContract",
      "outputs": [],
      "stateMutability": "nonpayable",
      "type": "function"
    },
    {
      "inputs": [
        {
          "internalType": "address",
          "name": "customer",
          "type": "address"
        },
        {
          "internalType": "uint256",
          "name": "points",
          "type": "uint256"
        }
      ],
      "name": "issuePoints",
      "outputs": [],
      "stateMutability": "nonpayable",
      "type": "function"
    },
    {
      "inputs": [
        {
          "internalType": "address",
          "name": "customer",
          "type": "address"
        },
        {
          "internalType": "uint256",
          "name": "points",
          "type": "uint256"
        }
      ],
      "name": "redeemPoints",
      "outputs": [],
      "stateMutability": "nonpayable",
      "type": "function"
    },
    {
      "inputs": [
        {
          "internalType": "address",
          "name": "customer",
          "type": "address"
        }
      ],
      "name": "getPointsBalance",
      "outputs": [
        {
          "internalType": "uint256",
          "name": "",
          "type": "uint256"
        }
      ],
      "stateMutability": "view",
      "type": "function"
    },
    {
      "inputs": [],
      "name": "getBvAddress",
      "outputs": [
        {
          "internalType": "address",
          "name": "",
          "type": "address"
        }
      ],
      "stateMutability": "view",
      "type": "function"
    }
  ],
  "bytecode": "0x608060405234801561000f575f80fd5b50604051610a82380380610a8283398181016040528101906100319190610116565b8160015f6101000a81548173ffffffffffffffffffffffffffffffffffffffff021916908373ffffffffffffffffffffffffffffffffffffffff1602179055508060025f6101000a81548173ffffffffffffffffffffffffffffffffffffffff021916908373ffffffffffffffffffffffffffffffffffffffff1602179055505050610154565b5f80fd5b5f73ffffffffffffffffffffffffffffffffffffffff82169050919050565b5f6100e5826100bc565b9050919050565b6100f5816100db565b81146100ff575f80fd5b50565b5f81519050610110816100ec565b92915050565b5f806040838503121561012c5761012b6100b8565b5b5f61013985828601610102565b925050602061014a85828601610102565b9150509250929050565b610921806101615f395ff3fe608060405234801561000f575f80fd5b5060043610610060575f3560e01c806307e5a0c41461006457806325ca4cff146100805780632a6517eb146100b0578063b85da8d2146100ce578063da20569e146100ea578063e707f36f14610106575b5f80fd5b61007e600480360381019061007991906105fe565b610136565b005b61009a600480360381019061009591906105fe565b610202565b6040516100a79190610641565b60405180910390f35b6100b8610216565b6040516100c59190610669565b60405180910390f35b6100e860048036038101906100e391906106ac565b61023e565b005b61010460048036038101906100ff91906106ac565b6103f0565b005b610120600480360381019061011b91906105fe565b610523565b60405161012d9190610641565b60405180910390f35b6101803360015f9054906101000a900473ffffffffffffffffffffffffffffffffffffffff1673ffffffffffffffffffffffffffffffffffffffff1661056890919063ffffffff16565b6101bf576040517f08c379a00000000000000000000000000000000000000000000000000000000081526004016101b69061076a565b60405180910390fd5b8060025f6101000a81548173ffffffffffffffffffffffffffffffffffffffff021916908373ffffffffffffffffffffffffffffffffffffffff16021790555050565b5f602052805f5260405f205f915090505481565b5f60025f9054906101000a900473ffffffffffffffffffffffffffffffffffffffff16905090565b60025f9054906101000a900473ffffffffffffffffffffffffffffffffffffffff1673ffffffffffffffffffffffffffffffffffffffff163373ffffffffffffffffffffffffffffffffffffffff16146102cd576040517f08c379a00000000000000000000000000000000000000000000000000000000081526004016102c4906107d2565b60405180910390fd5b805f808473ffffffffffffffffffffffffffffffffffffffff1673ffffffffffffffffffffffffffffffffffffffff1681526020019081526020015f2054101561034c576040517f08c379a00000000000000000000000000000000000000000000000000000000081526004016103439061083a565b60405180910390fd5b805f808473ffffffffffffffffffffffffffffffffffffffff1673ffffffffffffffffffffffffffffffffffffffff1681526020019081526020015f205f8282546103979190610885565b925050819055508173ffffffffffffffffffffffffffffffffffffffff167fc37df5d14f305277c1289e9a188a097cda6684189c95f785feb056cb77a8c910826040516103e49190610641565b60405180910390a25050565b60025f9054906101000a900473ffffffffffffffffffffffffffffffffffffffff1673ffffffffffffffffffffffffffffffffffffffff163373ffffffffffffffffffffffffffffffffffffffff161461047f576040517f08c379a0000000000000000000000000000000000000000000000000000000008152600401610476906107d2565b60405180910390fd5b805f808473ffffffffffffffffffffffffffffffffffffffff1673ffffffffffffffffffffffffffffffffffffffff1681526020019081526020015f205f8282546104ca91906108b8565b925050819055508173ffffffffffffffffffffffffffffffffffffffff167f5522eea310695242e9a97820729914e053a3ea3ab980666463a3e6b7f4d080f1826040516105179190610641565b60405180910390a25050565b5f805f8373ffffffffffffffffffffffffffffffffffffffff1673ffffffffffffffffffffffffffffffffffffffff1681526020019081526020015f20549050919050565b5f8173ffffffffffffffffffffffffffffffffffffffff168373ffffffffffffffffffffffffffffffffffffffff1614905092915050565b5f80fd5b5f73ffffffffffffffffffffffffffffffffffffffff82169050919050565b5f6105cd826105a4565b9050919050565b6105dd816105c3565b81146105e7575f80fd5b50565b5f813590506105f8816105d4565b92915050565b5f60208284031215610613576106126105a0565b5b5f610620848285016105ea565b91505092915050565b5f819050919050565b61063b81610629565b82525050565b5f6020820190506106545f830184610632565b92915050565b610663816105c3565b82525050565b5f60208201905061067c5f83018461065a565b92915050565b61068b81610629565b8114610695575f80fd5b50565b5f813590506106a681610682565b92915050565b5f80604083850312156106c2576106c16105a0565b5b5f6106cf858286016105ea565b92505060206106e085828601610698565b9150509250929050565b5f82825260208201905092915050565b7f4f6e6c7920746865206f776e65722063616e20706572666f726d2074686973205f8201527f616374696f6e0000000000000000000000000000000000000000000000000000602082015250565b5f6107546026836106ea565b915061075f826106fa565b604082019050919050565b5f6020820190508181035f83015261078181610748565b9050919050565b7f556e617574686f72697a656420616363657373000000000000000000000000005f82015250565b5f6107bc6013836106ea565b91506107c782610788565b602082019050919050565b5f6020820190508181035f8301526107e9816107b0565b9050919050565b7f496e73756666696369656e7420706f696e7473000000000000000000000000005f82015250565b5f6108246013836106ea565b915061082f826107f0565b602082019050919050565b5f6020820190508181035f83015261085181610818565b9050919050565b7f4e487b71000000000000000000000000000000000000000000000000000000005f52601160045260245ffd5b5f61088f82610629565b915061089a83610629565b92508282039050818111156108b2576108b1610858565b5b92915050565b5f6108c282610629565b91506108cd83610629565b92508282019050808211156108e5576108e4610858565b5b9291505056fea2646970667358221220489655e64b7d7e180abf0550988516b39be5368811476feee0a1ff4fb3ef4e1f64736f6c63430008150033",
  "immutableReferences": {},
  "source": "// SPDX-License-Identifier: MIT\r\npragma solidity ^0.8.0;\r\n\r\nimport \"./RewardSystem.sol\";\r\nimport \"./AddressLib.sol\";\r\n\r\ncontract LoyaltyPoints is RewardSystem {\r\n    using AddressLib for address;\r\n\r\n    mapping(address => uint256) public pointsBalance;\r\n    address private owner;\r\n    address private beverageContractAddress;\r\n\r\n    event PointsIssued(address indexed customer, uint points);\r\n    event PointsRedeemed(address indexed customer, uint points);\r\n\r\n    modifier onlyOwner() {\r\n        require(owner.isOwner(msg.sender), \"Only the owner can perform this action\");\r\n        _;\r\n    }\r\n\r\n    modifier onlyBeverageContract() {\r\n        require(msg.sender == beverageContractAddress, \"Unauthorized access\");\r\n        _;\r\n    }\r\n\r\n    constructor(address _owner, address _beverageContractAddress) {\r\n        owner = _owner;\r\n        beverageContractAddress = _beverageContractAddress;\r\n    }\r\n\r\n    function setBeverageContract(address _address) public onlyOwner {\r\n        beverageContractAddress = _address;\r\n    }\r\n\r\n    function issuePoints(address customer, uint256 points) override external onlyBeverageContract {\r\n        pointsBalance[customer] += points;\r\n        emit PointsIssued(customer, points);\r\n    }\r\n\r\n    function redeemPoints(address customer, uint256 points) override external onlyBeverageContract {\r\n        require(pointsBalance[customer] >= points, \"Insufficient points\");\r\n        pointsBalance[customer] -= points;\r\n        emit PointsRedeemed(customer, points);\r\n    }\r\n\r\n    function getPointsBalance(address customer) public view returns (uint256) {\r\n        return pointsBalance[customer];\r\n    }\r\n\r\n    function getBvAddress() public view returns (address) {\r\n        return beverageContractAddress;\r\n    }\r\n}\r\n",
  "sourcePath": "C:\\Users\\Cristian\\Desktop\\Blockchain\\contracts\\LoyaltyPoints.sol",
  "compiler": {
    "name": "solc",
    "version": "0.8.21+commit.d9974bed.Emscripten.clang"
  },
  "schemaVersion": "3.4.16",
  "updatedAt": "2024-05-14T09:38:36.384Z",
  "devdoc": {
    "kind": "dev",
    "methods": {},
    "version": 1
  },
  "userdoc": {
    "kind": "user",
    "methods": {},
    "version": 1
  }
}