{
  "contractName": "LoyaltyPoints",
  "abi": [
    {
      "inputs": [
        {
          "internalType": "address",
          "name": "_owner",
          "type": "address"
        }
      ],
      "stateMutability": "nonpayable",
      "type": "constructor"
    },
    {
      "anonymous": false,
      "inputs": [
        {
          "indexed": true,
          "internalType": "address",
          "name": "customer",
          "type": "address"
        },
        {
          "indexed": false,
          "internalType": "uint256",
          "name": "points",
          "type": "uint256"
        },
        {
          "indexed": false,
          "internalType": "string",
          "name": "ipfsHash",
          "type": "string"
        }
      ],
      "name": "PointsIssued",
      "type": "event"
    },
    {
      "anonymous": false,
      "inputs": [
        {
          "indexed": true,
          "internalType": "address",
          "name": "customer",
          "type": "address"
        },
        {
          "indexed": false,
          "internalType": "uint256",
          "name": "points",
          "type": "uint256"
        },
        {
          "indexed": false,
          "internalType": "string",
          "name": "ipfsHash",
          "type": "string"
        }
      ],
      "name": "PointsRedeemed",
      "type": "event"
    },
    {
      "inputs": [
        {
          "internalType": "address",
          "name": "",
          "type": "address"
        }
      ],
      "name": "pointsBalance",
      "outputs": [
        {
          "internalType": "uint256",
          "name": "points",
          "type": "uint256"
        },
        {
          "internalType": "string",
          "name": "ipfsHash",
          "type": "string"
        }
      ],
      "stateMutability": "view",
      "type": "function",
      "constant": true
    },
    {
      "inputs": [
        {
          "internalType": "address",
          "name": "customer",
          "type": "address"
        },
        {
          "internalType": "uint256",
          "name": "points",
          "type": "uint256"
        },
        {
          "internalType": "string",
          "name": "ipfsHash",
          "type": "string"
        }
      ],
      "name": "issuePoints",
      "outputs": [],
      "stateMutability": "nonpayable",
      "type": "function"
    },
    {
      "inputs": [
        {
          "internalType": "address",
          "name": "customer",
          "type": "address"
        },
        {
          "internalType": "uint256",
          "name": "points",
          "type": "uint256"
        },
        {
          "internalType": "string",
          "name": "ipfsHash",
          "type": "string"
        }
      ],
      "name": "redeemPoints",
      "outputs": [],
      "stateMutability": "nonpayable",
      "type": "function"
    },
    {
      "inputs": [
        {
          "internalType": "address",
          "name": "customer",
          "type": "address"
        }
      ],
      "name": "getPointsBalance",
      "outputs": [
        {
          "internalType": "uint256",
          "name": "",
          "type": "uint256"
        },
        {
          "internalType": "string",
          "name": "",
          "type": "string"
        }
      ],
      "stateMutability": "view",
      "type": "function",
      "constant": true
    }
  ],
  "bytecode": "0x608060405234801561000f575f80fd5b50604051610ed4380380610ed4833981810160405281019061003191906100d5565b8060015f6101000a81548173ffffffffffffffffffffffffffffffffffffffff021916908373ffffffffffffffffffffffffffffffffffffffff16021790555050610100565b5f80fd5b5f73ffffffffffffffffffffffffffffffffffffffff82169050919050565b5f6100a48261007b565b9050919050565b6100b48161009a565b81146100be575f80fd5b50565b5f815190506100cf816100ab565b92915050565b5f602082840312156100ea576100e9610077565b5b5f6100f7848285016100c1565b91505092915050565b610dc78061010d5f395ff3fe608060405234801561000f575f80fd5b506004361061004a575f3560e01c806325ca4cff1461004e5780632a42a5641461007f578063e707f36f1461009b578063f341bec0146100cc575b5f80fd5b610068600480360381019061006391906106a9565b6100e8565b604051610076929190610776565b60405180910390f35b6100996004803603810190610094919061082f565b61018d565b005b6100b560048036038101906100b091906106a9565b610392565b6040516100c3929190610776565b60405180910390f35b6100e660048036038101906100e1919061082f565b61048b565b005b5f602052805f5260405f205f91509050805f01549080600101805461010c906108cd565b80601f0160208091040260200160405190810160405280929190818152602001828054610138906108cd565b80156101835780601f1061015a57610100808354040283529160200191610183565b820191905f5260205f20905b81548152906001019060200180831161016657829003601f168201915b5050505050905082565b6101d73360015f9054906101000a900473ffffffffffffffffffffffffffffffffffffffff1673ffffffffffffffffffffffffffffffffffffffff1661060f90919063ffffffff16565b610216576040517f08c379a000000000000000000000000000000000000000000000000000000000815260040161020d9061096d565b60405180910390fd5b825f808673ffffffffffffffffffffffffffffffffffffffff1673ffffffffffffffffffffffffffffffffffffffff1681526020019081526020015f205f01541015610297576040517f08c379a000000000000000000000000000000000000000000000000000000000815260040161028e906109d5565b60405180910390fd5b825f808673ffffffffffffffffffffffffffffffffffffffff1673ffffffffffffffffffffffffffffffffffffffff1681526020019081526020015f205f015f8282546102e49190610a20565b9250508190555081815f808773ffffffffffffffffffffffffffffffffffffffff1673ffffffffffffffffffffffffffffffffffffffff1681526020019081526020015f206001019182610339929190610c27565b508373ffffffffffffffffffffffffffffffffffffffff167fda49bb5bf412718988a26709b7c8c5385b0af3ae2570f06613f372c2d401faf284848460405161038493929190610d2e565b60405180910390a250505050565b5f60605f805f8573ffffffffffffffffffffffffffffffffffffffff1673ffffffffffffffffffffffffffffffffffffffff1681526020019081526020015f206040518060400160405290815f82015481526020016001820180546103f6906108cd565b80601f0160208091040260200160405190810160405280929190818152602001828054610422906108cd565b801561046d5780601f106104445761010080835404028352916020019161046d565b820191905f5260205f20905b81548152906001019060200180831161045057829003601f168201915b5050505050815250509050805f015181602001519250925050915091565b6104d53360015f9054906101000a900473ffffffffffffffffffffffffffffffffffffffff1673ffffffffffffffffffffffffffffffffffffffff1661060f90919063ffffffff16565b610514576040517f08c379a000000000000000000000000000000000000000000000000000000000815260040161050b9061096d565b60405180910390fd5b825f808673ffffffffffffffffffffffffffffffffffffffff1673ffffffffffffffffffffffffffffffffffffffff1681526020019081526020015f205f015f8282546105619190610d5e565b9250508190555081815f808773ffffffffffffffffffffffffffffffffffffffff1673ffffffffffffffffffffffffffffffffffffffff1681526020019081526020015f2060010191826105b6929190610c27565b508373ffffffffffffffffffffffffffffffffffffffff167f82d1a38d914868bb792532b420128fd69672841c042d77207d48d47f731b076d84848460405161060193929190610d2e565b60405180910390a250505050565b5f8173ffffffffffffffffffffffffffffffffffffffff168373ffffffffffffffffffffffffffffffffffffffff1614905092915050565b5f80fd5b5f80fd5b5f73ffffffffffffffffffffffffffffffffffffffff82169050919050565b5f6106788261064f565b9050919050565b6106888161066e565b8114610692575f80fd5b50565b5f813590506106a38161067f565b92915050565b5f602082840312156106be576106bd610647565b5b5f6106cb84828501610695565b91505092915050565b5f819050919050565b6106e6816106d4565b82525050565b5f81519050919050565b5f82825260208201905092915050565b5f5b83811015610723578082015181840152602081019050610708565b5f8484015250505050565b5f601f19601f8301169050919050565b5f610748826106ec565b61075281856106f6565b9350610762818560208601610706565b61076b8161072e565b840191505092915050565b5f6040820190506107895f8301856106dd565b818103602083015261079b818461073e565b90509392505050565b6107ad816106d4565b81146107b7575f80fd5b50565b5f813590506107c8816107a4565b92915050565b5f80fd5b5f80fd5b5f80fd5b5f8083601f8401126107ef576107ee6107ce565b5b8235905067ffffffffffffffff81111561080c5761080b6107d2565b5b602083019150836001820283011115610828576108276107d6565b5b9250929050565b5f805f806060858703121561084757610846610647565b5b5f61085487828801610695565b9450506020610865878288016107ba565b935050604085013567ffffffffffffffff8111156108865761088561064b565b5b610892878288016107da565b925092505092959194509250565b7f4e487b71000000000000000000000000000000000000000000000000000000005f52602260045260245ffd5b5f60028204905060018216806108e457607f821691505b6020821081036108f7576108f66108a0565b5b50919050565b7f4f6e6c7920746865206f776e65722063616e20706572666f726d2074686973205f8201527f616374696f6e0000000000000000000000000000000000000000000000000000602082015250565b5f6109576026836106f6565b9150610962826108fd565b604082019050919050565b5f6020820190508181035f8301526109848161094b565b9050919050565b7f496e73756666696369656e7420706f696e7473000000000000000000000000005f82015250565b5f6109bf6013836106f6565b91506109ca8261098b565b602082019050919050565b5f6020820190508181035f8301526109ec816109b3565b9050919050565b7f4e487b71000000000000000000000000000000000000000000000000000000005f52601160045260245ffd5b5f610a2a826106d4565b9150610a35836106d4565b9250828203905081811115610a4d57610a4c6109f3565b5b92915050565b5f82905092915050565b7f4e487b71000000000000000000000000000000000000000000000000000000005f52604160045260245ffd5b5f819050815f5260205f209050919050565b5f6020601f8301049050919050565b5f82821b905092915050565b5f60088302610ae67fffffffffffffffffffffffffffffffffffffffffffffffffffffffffffffffff82610aab565b610af08683610aab565b95508019841693508086168417925050509392505050565b5f819050919050565b5f610b2b610b26610b21846106d4565b610b08565b6106d4565b9050919050565b5f819050919050565b610b4483610b11565b610b58610b5082610b32565b848454610ab7565b825550505050565b5f90565b610b6c610b60565b610b77818484610b3b565b505050565b5b81811015610b9a57610b8f5f82610b64565b600181019050610b7d565b5050565b601f821115610bdf57610bb081610a8a565b610bb984610a9c565b81016020851015610bc8578190505b610bdc610bd485610a9c565b830182610b7c565b50505b505050565b5f82821c905092915050565b5f610bff5f1984600802610be4565b1980831691505092915050565b5f610c178383610bf0565b9150826002028217905092915050565b610c318383610a53565b67ffffffffffffffff811115610c4a57610c49610a5d565b5b610c5482546108cd565b610c5f828285610b9e565b5f601f831160018114610c8c575f8415610c7a578287013590505b610c848582610c0c565b865550610ceb565b601f198416610c9a86610a8a565b5f5b82811015610cc157848901358255600182019150602085019450602081019050610c9c565b86831015610cde5784890135610cda601f891682610bf0565b8355505b6001600288020188555050505b50505050505050565b828183375f83830152505050565b5f610d0d83856106f6565b9350610d1a838584610cf4565b610d238361072e565b840190509392505050565b5f604082019050610d415f8301866106dd565b8181036020830152610d54818486610d02565b9050949350505050565b5f610d68826106d4565b9150610d73836106d4565b9250828201905080821115610d8b57610d8a6109f3565b5b9291505056fea264697066735822122065502e03666cdd3757e2fcaad14bd1ac14d3f2cdc0c968c78f0b59bd7e19577c64736f6c63430008150033",
  "immutableReferences": {},
  "source": "// SPDX-License-Identifier: MIT\r\npragma solidity ^0.8.0;\r\n\r\nimport \"./RewardSystem.sol\";\r\nimport \"./AddressLib.sol\";\r\n\r\ncontract LoyaltyPoints is RewardSystem {\r\n    using AddressLib for address;\r\n\r\n    struct PointsData {\r\n        uint256 points;\r\n        string ipfsHash;\r\n    }\r\n\r\n    mapping(address => PointsData) public pointsBalance;\r\n    address private owner;\r\n\r\n    event PointsIssued(address indexed customer, uint256 points, string ipfsHash);\r\n    event PointsRedeemed(address indexed customer, uint256 points, string ipfsHash);\r\n\r\n    modifier onlyOwner() {\r\n        require(owner.isOwner(msg.sender), \"Only the owner can perform this action\");\r\n        _;\r\n    }\r\n\r\n\r\n    constructor(address _owner) {\r\n        owner = _owner;\r\n    }\r\n\r\n    // Implementing RewardSystem interface\r\n    function issuePoints(address customer, uint256 points, string calldata ipfsHash) override external onlyOwner {\r\n        pointsBalance[customer].points += points;\r\n        pointsBalance[customer].ipfsHash = ipfsHash;\r\n        emit PointsIssued(customer, points, ipfsHash);\r\n    }\r\n\r\n    function redeemPoints(address customer, uint256 points, string calldata ipfsHash) override external onlyOwner {\r\n        require(pointsBalance[customer].points >= points, \"Insufficient points\");\r\n        pointsBalance[customer].points -= points;\r\n        pointsBalance[customer].ipfsHash = ipfsHash;\r\n        emit PointsRedeemed(customer, points, ipfsHash);\r\n    }\r\n\r\n    function getPointsBalance(address customer) public view returns (uint256, string memory) {\r\n        PointsData memory data = pointsBalance[customer];\r\n        return (data.points, data.ipfsHash);\r\n    }\r\n}\r\n",
  "sourcePath": "C:\\Users\\Cristian\\Desktop\\Blockchain\\contracts\\LoyaltyPoints.sol",
  "compiler": {
    "name": "solc",
    "version": "0.8.21+commit.d9974bed.Emscripten.clang"
  },
  "schemaVersion": "3.4.16",
  "updatedAt": "2024-05-14T12:25:42.912Z",
  "networkType": "ethereum",
  "devdoc": {
    "kind": "dev",
    "methods": {},
    "version": 1
  },
  "userdoc": {
    "kind": "user",
    "methods": {},
    "version": 1
  }
}